:1000000012000E12005D1200D41200F580F5C2A39A
:10001000C2B6C2B774381201F0740E1201F0740641
:100020001201F074011201F0755337757300748278
:100030001201F074541201FD74451201FD744D1249
:1000400001FD74501201FD74201201FD743D120176
:10005000FD74201201FDC2A0C2A1C2A22212006C36
:1000600012007812007E120081F57322D2A4D2A66B
:100070001201E7C2A4C2A62220A70280FB22E580CB
:1000800022F540B41D0474298034B41E04743080F9
:100090002DB41F0474318026B420047432801FB440
:1000A000210474338018B422047434801154F0C4D1
:1000B000FBE42416D4DBFBFBE540540F2BD4F540C6
:1000C00022FB54F0C41200D1FCEB540F1200D1FB00
:1000D00022443022748931F0E5731200C1EC120120
:1000E000FDEB1201FD74DF1201FD74431201FD747A
:1000F0002E1201FD22E573B55319D2A3D2B6120117
:100100003B1201E71201E71201E71201E71201E7D2
:10011000C2B62250E5C2A3D2B6D2B71201911201E3
:10012000E71201E71201E71201E7C2B61201E71276
:1001300001E71201E71201E7C2B72274C01201F011
:0A01400074541201FD74451201FD14
:10014A0074531201FD74541201FD74201201FD74DE
:10015A00461201FD744F1201FD74521201FD742002
:10016A001201FD74431201FD74301201FD7456121E
:10017A0001FD74491201FD74441201FD743112012A
:10018A00FD74391201FD2274C01201F074201201AB
:10019A00FD74221201FD74591201FD744F1201FD02
:1001AA0074551201FD74201201FD74411201FD748F
:1001BA00521201FD74451201FD74201201FD74539F
:1001CA001201FD74411201FD74461201FD744512BB
:1001DA0001FD74221201FD74201201FD227FFF7EAF
:1001EA00FFDEFEDFFA2231E7F590C2B2C2B3D2B423
:1001FA00C2B42231E7F590D2B2C2B3D2B4C2B422A9
:00000001FF
